{
    "_format": "hh-sol-artifact-1",
    "contractName": "Domains",
    "sourceName": "contracts/Domains.sol",
    "abi": [
        {
            "inputs": [
                {
                    "internalType": "string",
                    "name": "_tld",
                    "type": "string"
                }
            ],
            "stateMutability": "payable",
            "type": "constructor"
        },
        {
            "inputs": [],
            "name": "AlreadyRegistered",
            "type": "error"
        },
        {
            "inputs": [
                {
                    "internalType": "string",
                    "name": "name",
                    "type": "string"
                }
            ],
            "name": "InvalidName",
            "type": "error"
        },
        {
            "inputs": [],
            "name": "Unauthorized",
            "type": "error"
        },
        {
            "anonymous": false,
            "inputs": [
                {
                    "indexed": true,
                    "internalType": "address",
                    "name": "owner",
                    "type": "address"
                },
                {
                    "indexed": true,
                    "internalType": "address",
                    "name": "approved",
                    "type": "address"
                },
                {
                    "indexed": true,
                    "internalType": "uint256",
                    "name": "tokenId",
                    "type": "uint256"
                }
            ],
            "name": "Approval",
            "type": "event"
        },
        {
            "anonymous": false,
            "inputs": [
                {
                    "indexed": true,
                    "internalType": "address",
                    "name": "owner",
                    "type": "address"
                },
                {
                    "indexed": true,
                    "internalType": "address",
                    "name": "operator",
                    "type": "address"
                },
                {
                    "indexed": false,
                    "internalType": "bool",
                    "name": "approved",
                    "type": "bool"
                }
            ],
            "name": "ApprovalForAll",
            "type": "event"
        },
        {
            "anonymous": false,
            "inputs": [
                {
                    "indexed": true,
                    "internalType": "address",
                    "name": "from",
                    "type": "address"
                },
                {
                    "indexed": true,
                    "internalType": "address",
                    "name": "to",
                    "type": "address"
                },
                {
                    "indexed": true,
                    "internalType": "uint256",
                    "name": "tokenId",
                    "type": "uint256"
                }
            ],
            "name": "Transfer",
            "type": "event"
        },
        {
            "inputs": [
                {
                    "internalType": "address",
                    "name": "to",
                    "type": "address"
                },
                {
                    "internalType": "uint256",
                    "name": "tokenId",
                    "type": "uint256"
                }
            ],
            "name": "approve",
            "outputs": [],
            "stateMutability": "nonpayable",
            "type": "function"
        },
        {
            "inputs": [
                {
                    "internalType": "address",
                    "name": "owner",
                    "type": "address"
                }
            ],
            "name": "balanceOf",
            "outputs": [
                {
                    "internalType": "uint256",
                    "name": "",
                    "type": "uint256"
                }
            ],
            "stateMutability": "view",
            "type": "function"
        },
        {
            "inputs": [
                {
                    "internalType": "string",
                    "name": "",
                    "type": "string"
                }
            ],
            "name": "domains",
            "outputs": [
                {
                    "internalType": "address",
                    "name": "",
                    "type": "address"
                }
            ],
            "stateMutability": "view",
            "type": "function"
        },
        {
            "inputs": [
                {
                    "internalType": "string",
                    "name": "_name",
                    "type": "string"
                }
            ],
            "name": "getAddress",
            "outputs": [
                {
                    "internalType": "address",
                    "name": "",
                    "type": "address"
                }
            ],
            "stateMutability": "view",
            "type": "function"
        },
        {
            "inputs": [],
            "name": "getAllNames",
            "outputs": [
                {
                    "internalType": "string[]",
                    "name": "",
                    "type": "string[]"
                }
            ],
            "stateMutability": "view",
            "type": "function"
        },
        {
            "inputs": [
                {
                    "internalType": "uint256",
                    "name": "tokenId",
                    "type": "uint256"
                }
            ],
            "name": "getApproved",
            "outputs": [
                {
                    "internalType": "address",
                    "name": "",
                    "type": "address"
                }
            ],
            "stateMutability": "view",
            "type": "function"
        },
        {
            "inputs": [
                {
                    "internalType": "string",
                    "name": "name",
                    "type": "string"
                }
            ],
            "name": "getPrice",
            "outputs": [
                {
                    "internalType": "uint256",
                    "name": "",
                    "type": "uint256"
                }
            ],
            "stateMutability": "pure",
            "type": "function"
        },
        {
            "inputs": [
                {
                    "internalType": "string",
                    "name": "_name",
                    "type": "string"
                }
            ],
            "name": "getRecord",
            "outputs": [
                {
                    "internalType": "string",
                    "name": "",
                    "type": "string"
                }
            ],
            "stateMutability": "view",
            "type": "function"
        },
        {
            "inputs": [
                {
                    "internalType": "address",
                    "name": "owner",
                    "type": "address"
                },
                {
                    "internalType": "address",
                    "name": "operator",
                    "type": "address"
                }
            ],
            "name": "isApprovedForAll",
            "outputs": [
                {
                    "internalType": "bool",
                    "name": "",
                    "type": "bool"
                }
            ],
            "stateMutability": "view",
            "type": "function"
        },
        {
            "inputs": [],
            "name": "isOwner",
            "outputs": [
                {
                    "internalType": "bool",
                    "name": "",
                    "type": "bool"
                }
            ],
            "stateMutability": "view",
            "type": "function"
        },
        {
            "inputs": [],
            "name": "name",
            "outputs": [
                {
                    "internalType": "string",
                    "name": "",
                    "type": "string"
                }
            ],
            "stateMutability": "view",
            "type": "function"
        },
        {
            "inputs": [
                {
                    "internalType": "uint256",
                    "name": "",
                    "type": "uint256"
                }
            ],
            "name": "names",
            "outputs": [
                {
                    "internalType": "string",
                    "name": "",
                    "type": "string"
                }
            ],
            "stateMutability": "view",
            "type": "function"
        },
        {
            "inputs": [],
            "name": "owner",
            "outputs": [
                {
                    "internalType": "address payable",
                    "name": "",
                    "type": "address"
                }
            ],
            "stateMutability": "view",
            "type": "function"
        },
        {
            "inputs": [
                {
                    "internalType": "uint256",
                    "name": "tokenId",
                    "type": "uint256"
                }
            ],
            "name": "ownerOf",
            "outputs": [
                {
                    "internalType": "address",
                    "name": "",
                    "type": "address"
                }
            ],
            "stateMutability": "view",
            "type": "function"
        },
        {
            "inputs": [
                {
                    "internalType": "string",
                    "name": "",
                    "type": "string"
                }
            ],
            "name": "records",
            "outputs": [
                {
                    "internalType": "string",
                    "name": "",
                    "type": "string"
                }
            ],
            "stateMutability": "view",
            "type": "function"
        },
        {
            "inputs": [
                {
                    "internalType": "string",
                    "name": "_name",
                    "type": "string"
                }
            ],
            "name": "register",
            "outputs": [],
            "stateMutability": "payable",
            "type": "function"
        },
        {
            "inputs": [
                {
                    "internalType": "address",
                    "name": "from",
                    "type": "address"
                },
                {
                    "internalType": "address",
                    "name": "to",
                    "type": "address"
                },
                {
                    "internalType": "uint256",
                    "name": "tokenId",
                    "type": "uint256"
                }
            ],
            "name": "safeTransferFrom",
            "outputs": [],
            "stateMutability": "nonpayable",
            "type": "function"
        },
        {
            "inputs": [
                {
                    "internalType": "address",
                    "name": "from",
                    "type": "address"
                },
                {
                    "internalType": "address",
                    "name": "to",
                    "type": "address"
                },
                {
                    "internalType": "uint256",
                    "name": "tokenId",
                    "type": "uint256"
                },
                {
                    "internalType": "bytes",
                    "name": "_data",
                    "type": "bytes"
                }
            ],
            "name": "safeTransferFrom",
            "outputs": [],
            "stateMutability": "nonpayable",
            "type": "function"
        },
        {
            "inputs": [
                {
                    "internalType": "address",
                    "name": "operator",
                    "type": "address"
                },
                {
                    "internalType": "bool",
                    "name": "approved",
                    "type": "bool"
                }
            ],
            "name": "setApprovalForAll",
            "outputs": [],
            "stateMutability": "nonpayable",
            "type": "function"
        },
        {
            "inputs": [
                {
                    "internalType": "string",
                    "name": "_name",
                    "type": "string"
                },
                {
                    "internalType": "string",
                    "name": "_record",
                    "type": "string"
                }
            ],
            "name": "setRecord",
            "outputs": [],
            "stateMutability": "nonpayable",
            "type": "function"
        },
        {
            "inputs": [
                {
                    "internalType": "bytes4",
                    "name": "interfaceId",
                    "type": "bytes4"
                }
            ],
            "name": "supportsInterface",
            "outputs": [
                {
                    "internalType": "bool",
                    "name": "",
                    "type": "bool"
                }
            ],
            "stateMutability": "view",
            "type": "function"
        },
        {
            "inputs": [],
            "name": "symbol",
            "outputs": [
                {
                    "internalType": "string",
                    "name": "",
                    "type": "string"
                }
            ],
            "stateMutability": "view",
            "type": "function"
        },
        {
            "inputs": [],
            "name": "tld",
            "outputs": [
                {
                    "internalType": "string",
                    "name": "",
                    "type": "string"
                }
            ],
            "stateMutability": "view",
            "type": "function"
        },
        {
            "inputs": [
                {
                    "internalType": "uint256",
                    "name": "tokenId",
                    "type": "uint256"
                }
            ],
            "name": "tokenURI",
            "outputs": [
                {
                    "internalType": "string",
                    "name": "",
                    "type": "string"
                }
            ],
            "stateMutability": "view",
            "type": "function"
        },
        {
            "inputs": [
                {
                    "internalType": "address",
                    "name": "from",
                    "type": "address"
                },
                {
                    "internalType": "address",
                    "name": "to",
                    "type": "address"
                },
                {
                    "internalType": "uint256",
                    "name": "tokenId",
                    "type": "uint256"
                }
            ],
            "name": "transferFrom",
            "outputs": [],
            "stateMutability": "nonpayable",
            "type": "function"
        },
        {
            "inputs": [
                {
                    "internalType": "string",
                    "name": "_name",
                    "type": "string"
                }
            ],
            "name": "valid",
            "outputs": [
                {
                    "internalType": "bool",
                    "name": "",
                    "type": "bool"
                }
            ],
            "stateMutability": "pure",
            "type": "function"
        },
        {
            "inputs": [],
            "name": "withdraw",
            "outputs": [],
            "stateMutability": "nonpayable",
            "type": "function"
        }
    ],
    "bytecode": "0x6080604052604051806108a0016040528061086b815260200162004b3661086b9139600a90805190602001906200003892919062000178565b506040518060400160405280600d81526020017f3c2f746578743e3c2f7376673e00000000000000000000000000000000000000815250600b90805190602001906200008692919062000178565b50604051620053a1380380620053a18339818101604052810190620000ac9190620003c5565b6040518060400160405280601181526020017f414a4552204e616d652053657276696365000000000000000000000000000000815250818160009080519060200190620000fb92919062000178565b5080600190805190602001906200011492919062000178565b50505033600960006101000a81548173ffffffffffffffffffffffffffffffffffffffff021916908373ffffffffffffffffffffffffffffffffffffffff16021790555080600890805190602001906200017092919062000178565b50506200047b565b828054620001869062000445565b90600052602060002090601f016020900481019282620001aa5760008555620001f6565b82601f10620001c557805160ff1916838001178555620001f6565b82800160010185558215620001f6579182015b82811115620001f5578251825591602001919060010190620001d8565b5b50905062000205919062000209565b5090565b5b80821115620002245760008160009055506001016200020a565b5090565b6000604051905090565b600080fd5b600080fd5b600080fd5b600080fd5b6000601f19601f8301169050919050565b7f4e487b7100000000000000000000000000000000000000000000000000000000600052604160045260246000fd5b620002918262000246565b810181811067ffffffffffffffff82111715620002b357620002b262000257565b5b80604052505050565b6000620002c862000228565b9050620002d6828262000286565b919050565b600067ffffffffffffffff821115620002f957620002f862000257565b5b620003048262000246565b9050602081019050919050565b60005b838110156200033157808201518184015260208101905062000314565b8381111562000341576000848401525b50505050565b60006200035e6200035884620002db565b620002bc565b9050828152602081018484840111156200037d576200037c62000241565b5b6200038a84828562000311565b509392505050565b600082601f830112620003aa57620003a96200023c565b5b8151620003bc84826020860162000347565b91505092915050565b600060208284031215620003de57620003dd62000232565b5b600082015167ffffffffffffffff811115620003ff57620003fe62000237565b5b6200040d8482850162000392565b91505092915050565b7f4e487b7100000000000000000000000000000000000000000000000000000000600052602260045260246000fd5b600060028204905060018216806200045e57607f821691505b6020821081141562000475576200047462000416565b5b50919050565b6146ab806200048b6000396000f3fe60806040526004361061019c5760003560e01c80636352211e116100ec578063b88d4fde1161008a578063c87b56dd11610064578063c87b56dd14610624578063e985e9c514610661578063f2c298be1461069e578063fb825e5f146106ba5761019c565b8063b88d4fde14610595578063bf40fac1146105be578063c1880a98146105fb5761019c565b80638f32d59b116100c65780638f32d59b146104d957806395d89b41146105045780639791c0971461052f578063a22cb4651461056c5761019c565b80636352211e1461043457806370a08231146104715780638da5cb5b146104ae5761019c565b8063264492351161015957806342842e0e1161013357806342842e0e146103545780634622ab031461037d578063524f3889146103ba578063541e771d146103f75761019c565b806326449235146102d55780632d551432146103125780633ccfd60b1461033d5761019c565b806301ffc9a7146101a157806306fdde03146101de578063081812fc14610209578063095ea7b31461024657806311dd88451461026f57806323b872dd146102ac575b600080fd5b3480156101ad57600080fd5b506101c860048036038101906101c39190612bb8565b6106e5565b6040516101d59190612c00565b60405180910390f35b3480156101ea57600080fd5b506101f36107c7565b6040516102009190612cb4565b60405180910390f35b34801561021557600080fd5b50610230600480360381019061022b9190612d0c565b610859565b60405161023d9190612d7a565b60405180910390f35b34801561025257600080fd5b5061026d60048036038101906102689190612dc1565b6108de565b005b34801561027b57600080fd5b5061029660048036038101906102919190612e66565b6109f6565b6040516102a39190612cb4565b60405180910390f35b3480156102b857600080fd5b506102d360048036038101906102ce9190612eb3565b610aa9565b005b3480156102e157600080fd5b506102fc60048036038101906102f79190613036565b610b09565b6040516103099190612d7a565b60405180910390f35b34801561031e57600080fd5b50610327610b52565b6040516103349190612cb4565b60405180910390f35b34801561034957600080fd5b50610352610be0565b005b34801561036057600080fd5b5061037b60048036038101906103769190612eb3565b610ca6565b005b34801561038957600080fd5b506103a4600480360381019061039f9190612d0c565b610cc6565b6040516103b19190612cb4565b60405180910390f35b3480156103c657600080fd5b506103e160048036038101906103dc9190612e66565b610d66565b6040516103ee919061308e565b60405180910390f35b34801561040357600080fd5b5061041e60048036038101906104199190613036565b610dff565b60405161042b9190612cb4565b60405180910390f35b34801561044057600080fd5b5061045b60048036038101906104569190612d0c565b610eb5565b6040516104689190612d7a565b60405180910390f35b34801561047d57600080fd5b50610498600480360381019061049391906130a9565b610f67565b6040516104a5919061308e565b60405180910390f35b3480156104ba57600080fd5b506104c361101f565b6040516104d091906130f7565b60405180910390f35b3480156104e557600080fd5b506104ee611045565b6040516104fb9190612c00565b60405180910390f35b34801561051057600080fd5b5061051961109d565b6040516105269190612cb4565b60405180910390f35b34801561053b57600080fd5b5061055660048036038101906105519190612e66565b61112f565b6040516105639190612c00565b60405180910390f35b34801561057857600080fd5b50610593600480360381019061058e919061313e565b6111e3565b005b3480156105a157600080fd5b506105bc60048036038101906105b7919061321f565b6111f9565b005b3480156105ca57600080fd5b506105e560048036038101906105e09190612e66565b61125b565b6040516105f29190612d7a565b60405180910390f35b34801561060757600080fd5b50610622600480360381019061061d91906132a2565b6112a6565b005b34801561063057600080fd5b5061064b60048036038101906106469190612d0c565b611381565b6040516106589190612cb4565b60405180910390f35b34801561066d57600080fd5b5061068860048036038101906106839190613323565b6114d3565b6040516106959190612c00565b60405180910390f35b6106b860048036038101906106b39190612e66565b611567565b005b3480156106c657600080fd5b506106cf611828565b6040516106dc919061346f565b60405180910390f35b60007f80ac58cd000000000000000000000000000000000000000000000000000000007bffffffffffffffffffffffffffffffffffffffffffffffffffffffff1916827bffffffffffffffffffffffffffffffffffffffffffffffffffffffff191614806107b057507f5b5e139f000000000000000000000000000000000000000000000000000000007bffffffffffffffffffffffffffffffffffffffffffffffffffffffff1916827bffffffffffffffffffffffffffffffffffffffffffffffffffffffff1916145b806107c057506107bf82611972565b5b9050919050565b6060600080546107d6906134c0565b80601f0160208091040260200160405190810160405280929190818152602001828054610802906134c0565b801561084f5780601f106108245761010080835404028352916020019161084f565b820191906000526020600020905b81548152906001019060200180831161083257829003601f168201915b5050505050905090565b6000610864826119dc565b6108a3576040517f08c379a000000000000000000000000000000000000000000000000000000000815260040161089a90613564565b60405180910390fd5b6004600083815260200190815260200160002060009054906101000a900473ffffffffffffffffffffffffffffffffffffffff169050919050565b60006108e982610eb5565b90508073ffffffffffffffffffffffffffffffffffffffff168373ffffffffffffffffffffffffffffffffffffffff16141561095a576040517f08c379a0000000000000000000000000000000000000000000000000000000008152600401610951906135f6565b60405180910390fd5b8073ffffffffffffffffffffffffffffffffffffffff16610979611a48565b73ffffffffffffffffffffffffffffffffffffffff1614806109a857506109a7816109a2611a48565b6114d3565b5b6109e7576040517f08c379a00000000000000000000000000000000000000000000000000000000081526004016109de90613688565b60405180910390fd5b6109f18383611a50565b505050565b6060600d8383604051610a0a9291906136d8565b90815260200160405180910390208054610a23906134c0565b80601f0160208091040260200160405190810160405280929190818152602001828054610a4f906134c0565b8015610a9c5780601f10610a7157610100808354040283529160200191610a9c565b820191906000526020600020905b815481529060010190602001808311610a7f57829003601f168201915b5050505050905092915050565b610aba610ab4611a48565b82611b09565b610af9576040517f08c379a0000000000000000000000000000000000000000000000000000000008152600401610af090613763565b60405180910390fd5b610b04838383611be7565b505050565b600c818051602081018201805184825260208301602085012081835280955050505050506000915054906101000a900473ffffffffffffffffffffffffffffffffffffffff1681565b60088054610b5f906134c0565b80601f0160208091040260200160405190810160405280929190818152602001828054610b8b906134c0565b8015610bd85780601f10610bad57610100808354040283529160200191610bd8565b820191906000526020600020905b815481529060010190602001808311610bbb57829003601f168201915b505050505081565b610be8611045565b610bf157600080fd5b600047905060003373ffffffffffffffffffffffffffffffffffffffff1682604051610c1c906137b4565b60006040518083038185875af1925050503d8060008114610c59576040519150601f19603f3d011682016040523d82523d6000602084013e610c5e565b606091505b5050905080610ca2576040517f08c379a0000000000000000000000000000000000000000000000000000000008152600401610c9990613815565b60405180910390fd5b5050565b610cc1838383604051806020016040528060008152506111f9565b505050565b600e6020528060005260406000206000915090508054610ce5906134c0565b80601f0160208091040260200160405190810160405280929190818152602001828054610d11906134c0565b8015610d5e5780601f10610d3357610100808354040283529160200191610d5e565b820191906000526020600020905b815481529060010190602001808311610d4157829003601f168201915b505050505081565b600080610db684848080601f016020809104026020016040519081016040528093929190818152602001838380828437600081840152601f19601f82011690508083019250505050505050611e4e565b90506003811415610dd2576706f05b59d3b20000915050610df9565b6004811415610dec57670429d069189e0000915050610df9565b67016345785d8a00009150505b92915050565b600d818051602081018201805184825260208301602085012081835280955050505050506000915090508054610e34906134c0565b80601f0160208091040260200160405190810160405280929190818152602001828054610e60906134c0565b8015610ead5780601f10610e8257610100808354040283529160200191610ead565b820191906000526020600020905b815481529060010190602001808311610e9057829003601f168201915b505050505081565b6000806002600084815260200190815260200160002060009054906101000a900473ffffffffffffffffffffffffffffffffffffffff169050600073ffffffffffffffffffffffffffffffffffffffff168173ffffffffffffffffffffffffffffffffffffffff161415610f5e576040517f08c379a0000000000000000000000000000000000000000000000000000000008152600401610f55906138a7565b60405180910390fd5b80915050919050565b60008073ffffffffffffffffffffffffffffffffffffffff168273ffffffffffffffffffffffffffffffffffffffff161415610fd8576040517f08c379a0000000000000000000000000000000000000000000000000000000008152600401610fcf90613939565b60405180910390fd5b600360008373ffffffffffffffffffffffffffffffffffffffff1673ffffffffffffffffffffffffffffffffffffffff168152602001908152602001600020549050919050565b600960009054906101000a900473ffffffffffffffffffffffffffffffffffffffff1681565b6000600960009054906101000a900473ffffffffffffffffffffffffffffffffffffffff1673ffffffffffffffffffffffffffffffffffffffff163373ffffffffffffffffffffffffffffffffffffffff1614905090565b6060600180546110ac906134c0565b80601f01602080910402602001604051908101604052809291908181526020018280546110d8906134c0565b80156111255780601f106110fa57610100808354040283529160200191611125565b820191906000526020600020905b81548152906001019060200180831161110857829003601f168201915b5050505050905090565b6000600361118084848080601f016020809104026020016040519081016040528093929190818152602001838380828437600081840152601f19601f82011690508083019250505050505050611e4e565b101580156111db5750600a6111d884848080601f016020809104026020016040519081016040528093929190818152602001838380828437600081840152601f19601f82011690508083019250505050505050611e4e565b11155b905092915050565b6111f56111ee611a48565b8383612003565b5050565b61120a611204611a48565b83611b09565b611249576040517f08c379a000000000000000000000000000000000000000000000000000000000815260040161124090613763565b60405180910390fd5b61125584848484612170565b50505050565b6000600c838360405161126f9291906136d8565b908152602001604051809103902060009054906101000a900473ffffffffffffffffffffffffffffffffffffffff16905092915050565b600c84846040516112b89291906136d8565b908152602001604051809103902060009054906101000a900473ffffffffffffffffffffffffffffffffffffffff1673ffffffffffffffffffffffffffffffffffffffff163373ffffffffffffffffffffffffffffffffffffffff161461134b576040517f82b4290000000000000000000000000000000000000000000000000000000000815260040160405180910390fd5b8181600d868660405161135f9291906136d8565b9081526020016040518091039020919061137a929190612a23565b5050505050565b606061138c826119dc565b6113cb576040517f08c379a00000000000000000000000000000000000000000000000000000000081526004016113c2906139cb565b60405180910390fd5b60006006600084815260200190815260200160002080546113eb906134c0565b80601f0160208091040260200160405190810160405280929190818152602001828054611417906134c0565b80156114645780601f1061143957610100808354040283529160200191611464565b820191906000526020600020905b81548152906001019060200180831161144757829003601f168201915b5050505050905060006114756121cc565b905060008151141561148b5781925050506114ce565b6000825111156114c05780826040516020016114a8929190613a1c565b604051602081830303815290604052925050506114ce565b6114c9846121e3565b925050505b919050565b6000600560008473ffffffffffffffffffffffffffffffffffffffff1673ffffffffffffffffffffffffffffffffffffffff16815260200190815260200160002060008373ffffffffffffffffffffffffffffffffffffffff1673ffffffffffffffffffffffffffffffffffffffff16815260200190815260200160002060009054906101000a900460ff16905092915050565b600073ffffffffffffffffffffffffffffffffffffffff16600c83836040516115919291906136d8565b908152602001604051809103902060009054906101000a900473ffffffffffffffffffffffffffffffffffffffff1673ffffffffffffffffffffffffffffffffffffffff161461160d576040517f3a81d6fc00000000000000000000000000000000000000000000000000000000815260040160405180910390fd5b611617828261112f565b61165a5781816040517f7f19f48d000000000000000000000000000000000000000000000000000000008152600401611651929190613a6d565b60405180910390fd5b60006116668383610d66565b9050803410156116ab576040517f08c379a00000000000000000000000000000000000000000000000000000000081526004016116a290613add565b60405180910390fd5b6000838360086040516020016116c393929190613bdd565b60405160208183030381529060405290506000600a82600b6040516020016116ed93929190613c0e565b6040516020818303038152906040529050600061170a600761228a565b9050600061171f61171a85611e4e565b612298565b9050600061175785611730866123f9565b8460405160200161174393929190613dbb565b6040516020818303038152906040526123f9565b905060008160405160200161176c9190613e64565b60405160208183030381529060405290506117873385612591565b61179184826125af565b33600c8a8a6040516117a49291906136d8565b908152602001604051809103902060006101000a81548173ffffffffffffffffffffffffffffffffffffffff021916908373ffffffffffffffffffffffffffffffffffffffff1602179055508888600e60008781526020019081526020016000209190611812929190612a23565b5061181d6007612623565b505050505050505050565b60606000611836600761228a565b67ffffffffffffffff81111561184f5761184e612f0b565b5b60405190808252806020026020018201604052801561188257816020015b606081526020019060019003908161186d5790505b5090506000611891600761228a565b905060005b8181101561196957600e600082815260200190815260200160002080546118bc906134c0565b80601f01602080910402602001604051908101604052809291908181526020018280546118e8906134c0565b80156119355780601f1061190a57610100808354040283529160200191611935565b820191906000526020600020905b81548152906001019060200180831161191857829003601f168201915b505050505083828151811061194d5761194c613e86565b5b60200260200101819052508061196290613ee4565b9050611896565b50819250505090565b60007f01ffc9a7000000000000000000000000000000000000000000000000000000007bffffffffffffffffffffffffffffffffffffffffffffffffffffffff1916827bffffffffffffffffffffffffffffffffffffffffffffffffffffffff1916149050919050565b60008073ffffffffffffffffffffffffffffffffffffffff166002600084815260200190815260200160002060009054906101000a900473ffffffffffffffffffffffffffffffffffffffff1673ffffffffffffffffffffffffffffffffffffffff1614159050919050565b600033905090565b816004600083815260200190815260200160002060006101000a81548173ffffffffffffffffffffffffffffffffffffffff021916908373ffffffffffffffffffffffffffffffffffffffff160217905550808273ffffffffffffffffffffffffffffffffffffffff16611ac383610eb5565b73ffffffffffffffffffffffffffffffffffffffff167f8c5be1e5ebec7d5bd14f71427d1e84f3dd0314c0f7b2291e5b200ac8c7c3b92560405160405180910390a45050565b6000611b14826119dc565b611b53576040517f08c379a0000000000000000000000000000000000000000000000000000000008152600401611b4a90613f9f565b60405180910390fd5b6000611b5e83610eb5565b90508073ffffffffffffffffffffffffffffffffffffffff168473ffffffffffffffffffffffffffffffffffffffff161480611bcd57508373ffffffffffffffffffffffffffffffffffffffff16611bb584610859565b73ffffffffffffffffffffffffffffffffffffffff16145b80611bde5750611bdd81856114d3565b5b91505092915050565b8273ffffffffffffffffffffffffffffffffffffffff16611c0782610eb5565b73ffffffffffffffffffffffffffffffffffffffff1614611c5d576040517f08c379a0000000000000000000000000000000000000000000000000000000008152600401611c5490614031565b60405180910390fd5b600073ffffffffffffffffffffffffffffffffffffffff168273ffffffffffffffffffffffffffffffffffffffff161415611ccd576040517f08c379a0000000000000000000000000000000000000000000000000000000008152600401611cc4906140c3565b60405180910390fd5b611cd8838383612639565b611ce3600082611a50565b6001600360008573ffffffffffffffffffffffffffffffffffffffff1673ffffffffffffffffffffffffffffffffffffffff1681526020019081526020016000206000828254611d3391906140e3565b925050819055506001600360008473ffffffffffffffffffffffffffffffffffffffff1673ffffffffffffffffffffffffffffffffffffffff1681526020019081526020016000206000828254611d8a9190614117565b92505081905550816002600083815260200190815260200160002060006101000a81548173ffffffffffffffffffffffffffffffffffffffff021916908373ffffffffffffffffffffffffffffffffffffffff160217905550808273ffffffffffffffffffffffffffffffffffffffff168473ffffffffffffffffffffffffffffffffffffffff167fddf252ad1be2c89b69c2b068fc378daa952ba7f163c4a11628f55a4df523b3ef60405160405180910390a4611e4983838361263e565b505050565b60008060008084519050600092505b80821015611ff8576000858381518110611e7a57611e79613e86565b5b602001015160f81c60f81b9050608060f81b817effffffffffffffffffffffffffffffffffffffffffffffffffffffffffffff19161015611ec957600183611ec29190614117565b9250611fe4565b60e060f81b817effffffffffffffffffffffffffffffffffffffffffffffffffffffffffffff19161015611f0b57600283611f049190614117565b9250611fe3565b60f060f81b817effffffffffffffffffffffffffffffffffffffffffffffffffffffffffffff19161015611f4d57600383611f469190614117565b9250611fe2565b60f8801b817effffffffffffffffffffffffffffffffffffffffffffffffffffffffffffff19161015611f8e57600483611f879190614117565b9250611fe1565b60fc60f81b817effffffffffffffffffffffffffffffffffffffffffffffffffffffffffffff19161015611fd057600583611fc99190614117565b9250611fe0565b600683611fdd9190614117565b92505b5b5b5b5b508280611ff090613ee4565b935050611e5d565b829350505050919050565b8173ffffffffffffffffffffffffffffffffffffffff168373ffffffffffffffffffffffffffffffffffffffff161415612072576040517f08c379a0000000000000000000000000000000000000000000000000000000008152600401612069906141b9565b60405180910390fd5b80600560008573ffffffffffffffffffffffffffffffffffffffff1673ffffffffffffffffffffffffffffffffffffffff16815260200190815260200160002060008473ffffffffffffffffffffffffffffffffffffffff1673ffffffffffffffffffffffffffffffffffffffff16815260200190815260200160002060006101000a81548160ff0219169083151502179055508173ffffffffffffffffffffffffffffffffffffffff168373ffffffffffffffffffffffffffffffffffffffff167f17307eab39ab6107e8899845ad3d59bd9653f200f220920489ca2b5937696c31836040516121639190612c00565b60405180910390a3505050565b61217b848484611be7565b61218784848484612643565b6121c6576040517f08c379a00000000000000000000000000000000000000000000000000000000081526004016121bd9061424b565b60405180910390fd5b50505050565b606060405180602001604052806000815250905090565b60606121ee826119dc565b61222d576040517f08c379a0000000000000000000000000000000000000000000000000000000008152600401612224906142dd565b60405180910390fd5b60006122376121cc565b905060008151116122575760405180602001604052806000815250612282565b8061226184612298565b604051602001612272929190613a1c565b6040516020818303038152906040525b915050919050565b600081600001549050919050565b606060008214156122e0576040518060400160405280600181526020017f300000000000000000000000000000000000000000000000000000000000000081525090506123f4565b600082905060005b600082146123125780806122fb90613ee4565b915050600a8261230b919061432c565b91506122e8565b60008167ffffffffffffffff81111561232e5761232d612f0b565b5b6040519080825280601f01601f1916602001820160405280156123605781602001600182028036833780820191505090505b5090505b600085146123ed5760018261237991906140e3565b9150600a85612388919061435d565b60306123949190614117565b60f81b8183815181106123aa576123a9613e86565b5b60200101907effffffffffffffffffffffffffffffffffffffffffffffffffffffffffffff1916908160001a905350600a856123e6919061432c565b9450612364565b8093505050505b919050565b60606000825190506000811415612422576040518060200160405280600081525091505061258c565b600060036002836124339190614117565b61243d919061432c565b6004612449919061438e565b9050600060208261245a9190614117565b67ffffffffffffffff81111561247357612472612f0b565b5b6040519080825280601f01601f1916602001820160405280156124a55781602001600182028036833780820191505090505b5090506000604051806060016040528060408152602001614636604091399050600181016020830160005b868110156125495760038101905062ffffff818a015116603f8160121c168401518060081b905060ff603f83600c1c1686015116810190508060081b905060ff603f8360061c1686015116810190508060081b905060ff603f831686015116810190508060e01b905080845260048401935050506124d0565b50600386066001811461256357600281146125735761257e565b613d3d60f01b600283035261257e565b603d60f81b60018303525b508484525050819450505050505b919050565b6125ab8282604051806020016040528060008152506127cb565b5050565b6125b8826119dc565b6125f7576040517f08c379a00000000000000000000000000000000000000000000000000000000081526004016125ee9061445a565b60405180910390fd5b8060066000848152602001908152602001600020908051906020019061261e929190612aa9565b505050565b6001816000016000828254019250508190555050565b505050565b505050565b60006126648473ffffffffffffffffffffffffffffffffffffffff16612826565b156127be578373ffffffffffffffffffffffffffffffffffffffff1663150b7a0261268d611a48565b8786866040518563ffffffff1660e01b81526004016126af94939291906144cf565b6020604051808303816000875af19250505080156126eb57506040513d601f19601f820116820180604052508101906126e89190614530565b60015b61276e573d806000811461271b576040519150601f19603f3d011682016040523d82523d6000602084013e612720565b606091505b50600081511415612766576040517f08c379a000000000000000000000000000000000000000000000000000000000815260040161275d9061424b565b60405180910390fd5b805181602001fd5b63150b7a0260e01b7bffffffffffffffffffffffffffffffffffffffffffffffffffffffff1916817bffffffffffffffffffffffffffffffffffffffffffffffffffffffff1916149150506127c3565b600190505b949350505050565b6127d58383612849565b6127e26000848484612643565b612821576040517f08c379a00000000000000000000000000000000000000000000000000000000081526004016128189061424b565b60405180910390fd5b505050565b6000808273ffffffffffffffffffffffffffffffffffffffff163b119050919050565b600073ffffffffffffffffffffffffffffffffffffffff168273ffffffffffffffffffffffffffffffffffffffff1614156128b9576040517f08c379a00000000000000000000000000000000000000000000000000000000081526004016128b0906145a9565b60405180910390fd5b6128c2816119dc565b15612902576040517f08c379a00000000000000000000000000000000000000000000000000000000081526004016128f990614615565b60405180910390fd5b61290e60008383612639565b6001600360008473ffffffffffffffffffffffffffffffffffffffff1673ffffffffffffffffffffffffffffffffffffffff168152602001908152602001600020600082825461295e9190614117565b92505081905550816002600083815260200190815260200160002060006101000a81548173ffffffffffffffffffffffffffffffffffffffff021916908373ffffffffffffffffffffffffffffffffffffffff160217905550808273ffffffffffffffffffffffffffffffffffffffff16600073ffffffffffffffffffffffffffffffffffffffff167fddf252ad1be2c89b69c2b068fc378daa952ba7f163c4a11628f55a4df523b3ef60405160405180910390a4612a1f6000838361263e565b5050565b828054612a2f906134c0565b90600052602060002090601f016020900481019282612a515760008555612a98565b82601f10612a6a57803560ff1916838001178555612a98565b82800160010185558215612a98579182015b82811115612a97578235825591602001919060010190612a7c565b5b509050612aa59190612b2f565b5090565b828054612ab5906134c0565b90600052602060002090601f016020900481019282612ad75760008555612b1e565b82601f10612af057805160ff1916838001178555612b1e565b82800160010185558215612b1e579182015b82811115612b1d578251825591602001919060010190612b02565b5b509050612b2b9190612b2f565b5090565b5b80821115612b48576000816000905550600101612b30565b5090565b6000604051905090565b600080fd5b600080fd5b60007fffffffff0000000000000000000000000000000000000000000000000000000082169050919050565b612b9581612b60565b8114612ba057600080fd5b50565b600081359050612bb281612b8c565b92915050565b600060208284031215612bce57612bcd612b56565b5b6000612bdc84828501612ba3565b91505092915050565b60008115159050919050565b612bfa81612be5565b82525050565b6000602082019050612c156000830184612bf1565b92915050565b600081519050919050565b600082825260208201905092915050565b60005b83811015612c55578082015181840152602081019050612c3a565b83811115612c64576000848401525b50505050565b6000601f19601f8301169050919050565b6000612c8682612c1b565b612c908185612c26565b9350612ca0818560208601612c37565b612ca981612c6a565b840191505092915050565b60006020820190508181036000830152612cce8184612c7b565b905092915050565b6000819050919050565b612ce981612cd6565b8114612cf457600080fd5b50565b600081359050612d0681612ce0565b92915050565b600060208284031215612d2257612d21612b56565b5b6000612d3084828501612cf7565b91505092915050565b600073ffffffffffffffffffffffffffffffffffffffff82169050919050565b6000612d6482612d39565b9050919050565b612d7481612d59565b82525050565b6000602082019050612d8f6000830184612d6b565b92915050565b612d9e81612d59565b8114612da957600080fd5b50565b600081359050612dbb81612d95565b92915050565b60008060408385031215612dd857612dd7612b56565b5b6000612de685828601612dac565b9250506020612df785828601612cf7565b9150509250929050565b600080fd5b600080fd5b600080fd5b60008083601f840112612e2657612e25612e01565b5b8235905067ffffffffffffffff811115612e4357612e42612e06565b5b602083019150836001820283011115612e5f57612e5e612e0b565b5b9250929050565b60008060208385031215612e7d57612e7c612b56565b5b600083013567ffffffffffffffff811115612e9b57612e9a612b5b565b5b612ea785828601612e10565b92509250509250929050565b600080600060608486031215612ecc57612ecb612b56565b5b6000612eda86828701612dac565b9350506020612eeb86828701612dac565b9250506040612efc86828701612cf7565b9150509250925092565b600080fd5b7f4e487b7100000000000000000000000000000000000000000000000000000000600052604160045260246000fd5b612f4382612c6a565b810181811067ffffffffffffffff82111715612f6257612f61612f0b565b5b80604052505050565b6000612f75612b4c565b9050612f818282612f3a565b919050565b600067ffffffffffffffff821115612fa157612fa0612f0b565b5b612faa82612c6a565b9050602081019050919050565b82818337600083830152505050565b6000612fd9612fd484612f86565b612f6b565b905082815260208101848484011115612ff557612ff4612f06565b5b613000848285612fb7565b509392505050565b600082601f83011261301d5761301c612e01565b5b813561302d848260208601612fc6565b91505092915050565b60006020828403121561304c5761304b612b56565b5b600082013567ffffffffffffffff81111561306a57613069612b5b565b5b61307684828501613008565b91505092915050565b61308881612cd6565b82525050565b60006020820190506130a3600083018461307f565b92915050565b6000602082840312156130bf576130be612b56565b5b60006130cd84828501612dac565b91505092915050565b60006130e182612d39565b9050919050565b6130f1816130d6565b82525050565b600060208201905061310c60008301846130e8565b92915050565b61311b81612be5565b811461312657600080fd5b50565b60008135905061313881613112565b92915050565b6000806040838503121561315557613154612b56565b5b600061316385828601612dac565b925050602061317485828601613129565b9150509250929050565b600067ffffffffffffffff82111561319957613198612f0b565b5b6131a282612c6a565b9050602081019050919050565b60006131c26131bd8461317e565b612f6b565b9050828152602081018484840111156131de576131dd612f06565b5b6131e9848285612fb7565b509392505050565b600082601f83011261320657613205612e01565b5b81356132168482602086016131af565b91505092915050565b6000806000806080858703121561323957613238612b56565b5b600061324787828801612dac565b945050602061325887828801612dac565b935050604061326987828801612cf7565b925050606085013567ffffffffffffffff81111561328a57613289612b5b565b5b613296878288016131f1565b91505092959194509250565b600080600080604085870312156132bc576132bb612b56565b5b600085013567ffffffffffffffff8111156132da576132d9612b5b565b5b6132e687828801612e10565b9450945050602085013567ffffffffffffffff81111561330957613308612b5b565b5b61331587828801612e10565b925092505092959194509250565b6000806040838503121561333a57613339612b56565b5b600061334885828601612dac565b925050602061335985828601612dac565b9150509250929050565b600081519050919050565b600082825260208201905092915050565b6000819050602082019050919050565b600082825260208201905092915050565b60006133ab82612c1b565b6133b5818561338f565b93506133c5818560208601612c37565b6133ce81612c6a565b840191505092915050565b60006133e583836133a0565b905092915050565b6000602082019050919050565b600061340582613363565b61340f818561336e565b9350836020820285016134218561337f565b8060005b8581101561345d578484038952815161343e85826133d9565b9450613449836133ed565b925060208a01995050600181019050613425565b50829750879550505050505092915050565b6000602082019050818103600083015261348981846133fa565b905092915050565b7f4e487b7100000000000000000000000000000000000000000000000000000000600052602260045260246000fd5b600060028204905060018216806134d857607f821691505b602082108114156134ec576134eb613491565b5b50919050565b7f4552433732313a20617070726f76656420717565727920666f72206e6f6e657860008201527f697374656e7420746f6b656e0000000000000000000000000000000000000000602082015250565b600061354e602c83612c26565b9150613559826134f2565b604082019050919050565b6000602082019050818103600083015261357d81613541565b9050919050565b7f4552433732313a20617070726f76616c20746f2063757272656e74206f776e6560008201527f7200000000000000000000000000000000000000000000000000000000000000602082015250565b60006135e0602183612c26565b91506135eb82613584565b604082019050919050565b6000602082019050818103600083015261360f816135d3565b9050919050565b7f4552433732313a20617070726f76652063616c6c6572206973206e6f74206f7760008201527f6e6572206e6f7220617070726f76656420666f7220616c6c0000000000000000602082015250565b6000613672603883612c26565b915061367d82613616565b604082019050919050565b600060208201905081810360008301526136a181613665565b9050919050565b600081905092915050565b60006136bf83856136a8565b93506136cc838584612fb7565b82840190509392505050565b60006136e58284866136b3565b91508190509392505050565b7f4552433732313a207472616e736665722063616c6c6572206973206e6f74206f60008201527f776e6572206e6f7220617070726f766564000000000000000000000000000000602082015250565b600061374d603183612c26565b9150613758826136f1565b604082019050919050565b6000602082019050818103600083015261377c81613740565b9050919050565b600081905092915050565b50565b600061379e600083613783565b91506137a98261378e565b600082019050919050565b60006137bf82613791565b9150819050919050565b7f4661696c656420746f207769746864726177204d617469630000000000000000600082015250565b60006137ff601883612c26565b915061380a826137c9565b602082019050919050565b6000602082019050818103600083015261382e816137f2565b9050919050565b7f4552433732313a206f776e657220717565727920666f72206e6f6e657869737460008201527f656e7420746f6b656e0000000000000000000000000000000000000000000000602082015250565b6000613891602983612c26565b915061389c82613835565b604082019050919050565b600060208201905081810360008301526138c081613884565b9050919050565b7f4552433732313a2062616c616e636520717565727920666f7220746865207a6560008201527f726f206164647265737300000000000000000000000000000000000000000000602082015250565b6000613923602a83612c26565b915061392e826138c7565b604082019050919050565b6000602082019050818103600083015261395281613916565b9050919050565b7f45524337323155524953746f726167653a2055524920717565727920666f722060008201527f6e6f6e6578697374656e7420746f6b656e000000000000000000000000000000602082015250565b60006139b5603183612c26565b91506139c082613959565b604082019050919050565b600060208201905081810360008301526139e4816139a8565b9050919050565b60006139f682612c1b565b613a0081856136a8565b9350613a10818560208601612c37565b80840191505092915050565b6000613a2882856139eb565b9150613a3482846139eb565b91508190509392505050565b6000613a4c8385612c26565b9350613a59838584612fb7565b613a6283612c6a565b840190509392505050565b60006020820190508181036000830152613a88818486613a40565b90509392505050565b7f4e6f7420656e6f756768204d6174696320706169640000000000000000000000600082015250565b6000613ac7601583612c26565b9150613ad282613a91565b602082019050919050565b60006020820190508181036000830152613af681613aba565b9050919050565b7f2e00000000000000000000000000000000000000000000000000000000000000600082015250565b6000613b336001836136a8565b9150613b3e82613afd565b600182019050919050565b60008190508160005260206000209050919050565b60008154613b6b816134c0565b613b7581866136a8565b94506001821660008114613b905760018114613ba157613bd4565b60ff19831686528186019350613bd4565b613baa85613b49565b60005b83811015613bcc57815481890152600182019150602081019050613bad565b838801955050505b50505092915050565b6000613bea8285876136b3565b9150613bf582613b26565b9150613c018284613b5e565b9150819050949350505050565b6000613c1a8286613b5e565b9150613c2682856139eb565b9150613c328284613b5e565b9150819050949350505050565b7f7b226e616d65223a202200000000000000000000000000000000000000000000600082015250565b6000613c75600a836136a8565b9150613c8082613c3f565b600a82019050919050565b7f222c20226465736372697074696f6e223a20224120646f6d61696e206f6e207460008201527f686520414a4552204e616d652053657276696365222c2022696d616765223a2060208201527f22646174613a696d6167652f7376672b786d6c3b6261736536342c0000000000604082015250565b6000613d0d605b836136a8565b9150613d1882613c8b565b605b82019050919050565b7f222c226c656e677468223a220000000000000000000000000000000000000000600082015250565b6000613d59600c836136a8565b9150613d6482613d23565b600c82019050919050565b7f227d000000000000000000000000000000000000000000000000000000000000600082015250565b6000613da56002836136a8565b9150613db082613d6f565b600282019050919050565b6000613dc682613c68565b9150613dd282866139eb565b9150613ddd82613d00565b9150613de982856139eb565b9150613df482613d4c565b9150613e0082846139eb565b9150613e0b82613d98565b9150819050949350505050565b7f646174613a6170706c69636174696f6e2f6a736f6e3b6261736536342c000000600082015250565b6000613e4e601d836136a8565b9150613e5982613e18565b601d82019050919050565b6000613e6f82613e41565b9150613e7b82846139eb565b915081905092915050565b7f4e487b7100000000000000000000000000000000000000000000000000000000600052603260045260246000fd5b7f4e487b7100000000000000000000000000000000000000000000000000000000600052601160045260246000fd5b6000613eef82612cd6565b91507fffffffffffffffffffffffffffffffffffffffffffffffffffffffffffffffff821415613f2257613f21613eb5565b5b600182019050919050565b7f4552433732313a206f70657261746f7220717565727920666f72206e6f6e657860008201527f697374656e7420746f6b656e0000000000000000000000000000000000000000602082015250565b6000613f89602c83612c26565b9150613f9482613f2d565b604082019050919050565b60006020820190508181036000830152613fb881613f7c565b9050919050565b7f4552433732313a207472616e736665722066726f6d20696e636f72726563742060008201527f6f776e6572000000000000000000000000000000000000000000000000000000602082015250565b600061401b602583612c26565b915061402682613fbf565b604082019050919050565b6000602082019050818103600083015261404a8161400e565b9050919050565b7f4552433732313a207472616e7366657220746f20746865207a65726f2061646460008201527f7265737300000000000000000000000000000000000000000000000000000000602082015250565b60006140ad602483612c26565b91506140b882614051565b604082019050919050565b600060208201905081810360008301526140dc816140a0565b9050919050565b60006140ee82612cd6565b91506140f983612cd6565b92508282101561410c5761410b613eb5565b5b828203905092915050565b600061412282612cd6565b915061412d83612cd6565b9250827fffffffffffffffffffffffffffffffffffffffffffffffffffffffffffffffff0382111561416257614161613eb5565b5b828201905092915050565b7f4552433732313a20617070726f766520746f2063616c6c657200000000000000600082015250565b60006141a3601983612c26565b91506141ae8261416d565b602082019050919050565b600060208201905081810360008301526141d281614196565b9050919050565b7f4552433732313a207472616e7366657220746f206e6f6e20455243373231526560008201527f63656976657220696d706c656d656e7465720000000000000000000000000000602082015250565b6000614235603283612c26565b9150614240826141d9565b604082019050919050565b6000602082019050818103600083015261426481614228565b9050919050565b7f4552433732314d657461646174613a2055524920717565727920666f72206e6f60008201527f6e6578697374656e7420746f6b656e0000000000000000000000000000000000602082015250565b60006142c7602f83612c26565b91506142d28261426b565b604082019050919050565b600060208201905081810360008301526142f6816142ba565b9050919050565b7f4e487b7100000000000000000000000000000000000000000000000000000000600052601260045260246000fd5b600061433782612cd6565b915061434283612cd6565b925082614352576143516142fd565b5b828204905092915050565b600061436882612cd6565b915061437383612cd6565b925082614383576143826142fd565b5b828206905092915050565b600061439982612cd6565b91506143a483612cd6565b9250817fffffffffffffffffffffffffffffffffffffffffffffffffffffffffffffffff04831182151516156143dd576143dc613eb5565b5b828202905092915050565b7f45524337323155524953746f726167653a2055524920736574206f66206e6f6e60008201527f6578697374656e7420746f6b656e000000000000000000000000000000000000602082015250565b6000614444602e83612c26565b915061444f826143e8565b604082019050919050565b6000602082019050818103600083015261447381614437565b9050919050565b600081519050919050565b600082825260208201905092915050565b60006144a18261447a565b6144ab8185614485565b93506144bb818560208601612c37565b6144c481612c6a565b840191505092915050565b60006080820190506144e46000830187612d6b565b6144f16020830186612d6b565b6144fe604083018561307f565b81810360608301526145108184614496565b905095945050505050565b60008151905061452a81612b8c565b92915050565b60006020828403121561454657614545612b56565b5b60006145548482850161451b565b91505092915050565b7f4552433732313a206d696e7420746f20746865207a65726f2061646472657373600082015250565b6000614593602083612c26565b915061459e8261455d565b602082019050919050565b600060208201905081810360008301526145c281614586565b9050919050565b7f4552433732313a20746f6b656e20616c7265616479206d696e74656400000000600082015250565b60006145ff601c83612c26565b915061460a826145c9565b602082019050919050565b6000602082019050818103600083015261462e816145f2565b905091905056fe4142434445464748494a4b4c4d4e4f505152535455565758595a6162636465666768696a6b6c6d6e6f707172737475767778797a303132333435363738392b2fa2646970667358221220aea704f3bd215087a409e8ae9113e6d385da5fd1fc6bd83cefb52715829ca31f64736f6c634300080a00333c73766720786d6c6e733d22687474703a2f2f7777772e77332e6f72672f323030302f737667222077696474683d2232373022206865696768743d22323730222066696c6c3d226e6f6e65223e3c706174682066696c6c3d2275726c282342292220643d224d302030683237307632373048307a222f3e3c646566733e3c66696c7465722069643d22412220636f6c6f722d696e746572706f6c6174696f6e2d66696c746572733d2273524742222066696c746572556e6974733d227573657253706163654f6e55736522206865696768743d22323730222077696474683d22323730223e3c666544726f70536861646f772064783d2230222064793d22312220737464446576696174696f6e3d22322220666c6f6f642d6f7061636974793d222e323235222077696474683d223230302522206865696768743d2232303025222f3e3c2f66696c7465723e3c2f646566733e3c7061746820643d224d37322e3836332034322e393439632d2e3636382d2e3338372d312e3432362d2e35392d322e3139372d2e3539732d312e3532392e3230342d322e3139372e35396c2d31302e30383120362e3033322d362e383520332e3933342d31302e30383120362e303332632d2e3636382e3338372d312e3432362e35392d322e3139372e3539732d312e3532392d2e3230342d322e3139372d2e35396c2d382e3031332d342e37323161342e353220342e35322030203020312d312e3538392d312e363136632d2e3338342d2e3636352d2e3539342d312e3431382d2e3630382d322e313837762d392e3331632d2e3031332d2e3737352e3138352d312e3533382e3537322d322e32303861342e323520342e323520302030203120312e3632352d312e3539356c372e3838342d342e3539632e3636382d2e33383720312e3432362d2e353920322e3139372d2e353973312e3532392e32303420322e3139372e35396c372e38383420342e353961342e353220342e353220302030203120312e35383920312e363136632e3338342e3636352e35393420312e3431382e36303820322e31383776362e3033326c362e38352d342e303635762d362e303332632e3031332d2e3737352d2e3138352d312e3533382d2e3537322d322e32303861342e323520342e32352030203020302d312e3632352d312e3539354c34312e3435362032342e3539632d2e3636382d2e3338372d312e3432362d2e35392d322e3139372d2e3539732d312e3532392e3230342d322e3139372e35396c2d31342e38363420382e36353561342e323520342e32352030203020302d312e36323520312e353935632d2e3338372e36372d2e35383520312e3433342d2e35373220322e3230387631372e343431632d2e3031332e3737352e31383520312e3533382e35373220322e32303861342e323520342e323520302030203020312e36323520312e3539356c31342e38363420382e363535632e3636382e33383720312e3432362e353920322e3139372e353973312e3532392d2e32303420322e3139372d2e35396c31302e3038312d352e39303120362e38352d342e3036352031302e3038312d352e393031632e3636382d2e33383720312e3432362d2e353920322e3139372d2e353973312e3532392e32303420322e3139372e35396c372e38383420342e353961342e353220342e353220302030203120312e35383920312e363136632e3338342e3636352e35393420312e3431382e36303820322e31383776392e333131632e3031332e3737352d2e31383520312e3533382d2e35373220322e32303861342e323520342e32352030203020312d312e36323520312e3539356c2d372e38383420342e373231632d2e3636382e3338372d312e3432362e35392d322e3139372e3539732d312e3532392d2e3230342d322e3139372d2e35396c2d372e3838342d342e353961342e353220342e35322030203020312d312e3538392d312e363136632d2e3338352d2e3636352d2e3539342d312e3431382d2e3630382d322e313837762d362e3033326c2d362e383520342e30363576362e303332632d2e3031332e3737352e31383520312e3533382e35373220322e32303861342e323520342e323520302030203020312e36323520312e3539356c31342e38363420382e363535632e3636382e33383720312e3432362e353920322e3139372e353973312e3532392d2e32303420322e3139372d2e35396c31342e3836342d382e363535632e3635372d2e33393420312e3230342d2e393520312e3538392d312e363136732e3539342d312e3431382e3630392d322e3138375635352e353338632e3031332d2e3737352d2e3138352d312e3533382d2e3537322d322e32303861342e323520342e32352030203020302d312e3632352d312e3539356c2d31342e3939332d382e3738367a222066696c6c3d2223666666222f3e3c646566733e3c6c696e6561724772616469656e742069643d2242222078313d2230222079313d2230222078323d22323730222079323d2232373022206772616469656e74556e6974733d227573657253706163654f6e557365223e3c73746f702073746f702d636f6c6f723d2223636235656565222f3e3c73746f70206f66667365743d2231222073746f702d636f6c6f723d2223306364376534222073746f702d6f7061636974793d222e3939222f3e3c2f6c696e6561724772616469656e743e3c2f646566733e3c7465787420783d2233322e352220793d223233312220666f6e742d73697a653d223237222066696c6c3d2223666666222066696c7465723d2275726c282341292220666f6e742d66616d696c793d22506c7573204a616b617274612053616e732c44656a6156752053616e732c4e6f746f20436f6c6f7220456d6f6a692c4170706c6520436f6c6f7220456d6f6a692c73616e732d73657269662220666f6e742d7765696768743d22626f6c64223e",
    "linkReferences": {},
    "deployedLinkReferences": {}
}